:1000000000800020BD0100003D8A00003D8A000004
:100010003D8A00003D8A00003D8A0000098A0000F8
:10002000098A0000098A0000098A00003D8A000050
:100030003D8A0000098A00003D8A0000F98900001D
:100040003D8A00003D8A00003D8A00003D8A000094
:100050003D8A00003D8A00003D8A00003D8A000084
:100060003D8A00003D8A00003D8A00003D8A000074
:100070003D8A00003D8A00003D8A00003D8A000064
:100080003D8A00003D8A00003D8A00003D8A000054
:100090003D8A00003D8A00003D8A00003D8A000044
:1000A0004D5F00003D8A00003D8A00003D8A00004F
:1000B0003D8A00003D8A00003D8A00003D8A000024
:1000C0003D8A00003D8A00003D8A00003D8A000014
:1000D0003D8A00003D8A00003D8A00003D8A000004
:1000E0003D8A00003D8A00003D8A00003D8A0000F4
:1000F0003D8A0000EDA900003D8A000069AE0000C5
:100100003D8A000019B200003D8A00003D8A0000CF
:100110003D8A00003D8A00003D8A00003D8A0000C3
:100120003D8A00003D8A00003D8A00003D8A0000B3
:100130003D8A00003D8A00003D8A00003D8A0000A3
:100140003D8A00003D8A00003D8A00003D8A000093
:1001500011A0000029A0000041A0000059A000004B
:100160003D8A0000319300003D8A00003D8A000076
:100170003D8A00003D8A00003D8A00003D8A000063
:100180003D8A00003D8A00003D8A00003D8A000053
:100190003D8A00003D8A00003D8A0000CD8B0000B2
:1001A0001D8C0000A58C0000618D0000E58D000015
:1001B0003D8A00003D8A0000B99E0000544B4CF27D
:1001C000205210B51A804DF628121A8000BF00BFC9
:1001D00008F038FC4F4B4FF010621A604E4A9A609C
:1001E0004E4ADA604E4B1A6812F4807204D14D49BF
:1001F0000A604FF4A8521A604B4B1A7802F00802BA
:10020000D2B21AB11A7842F008021A70474B484825
:10021000484C2A221A700023474A02E01959995083
:10022000043399188142F9D3444B454A002101E037
:1002300043F8041B9342FBD34249434800231A5816
:100240005A500433B3F5DE7FF9D1404B404A802148
:1002500003F8011B9342FBD13A4A3E4B1A603E4BD6
:100260000A221A703D4B24221A70A02203F8012C96
:100270003B4A137803F00203DBB2002BF9D0384A73
:10028000137803F01003DBB2002BF9D1344A137852
:1002900003F00C03082BFAD1324B03221A704022D0
:1002A0005A702F4A137803F02003DBB2002BF9D0E9
:1002B0002B4A137803F04003DBB2002BF9D02A4B12
:1002C0002A4A1A6002225A60294B20221A70244AB4
:1002D000137803F00C030C2BFAD1264A264B1A6034
:1002E000264B274A1A60072243F8042C62B608F00E
:1002F00011FF0C4B1B68DC0702D5224808F08AFD71
:100300000EF0ECFB08F0A4FB09F05FFFFEE700BF76
:100310000E20054030800440823F04000100002B85
:1003200010D0034014D0034002D0074000E0074043
:100330004CDFFF1F7475010060CBFF1F4CDFFF1FF8
:100340009002002000C6FF1F0000000000E400E053
:100350005FE400E008ED00E0005006400140064088
:10036000064006400440064044800440000003016B
:1003700000400640C01005000480044014E000E086
:10038000FF76010000DD6850FFFFFFFFFFFFFFFF6A
:10039000FFFFFFFFFFFFFFFFFFFFFFFFFFFFFFFF6D
:1003A000FFFFFFFFFFFFFFFFFFFFFFFFFFFFFFFF5D
:1003B000FFFFFFFFFFFFFFFFFFFFFFFFFFFFFFFF4D
:1003C000FFFFFFFFFFFFFFFFFFFFFFFFFFFFFFFF3D
:1003D000FFFFFFFFFFFFFFFFFFFFFFFFFFFFFFFF2D
:1003E000FFFFFFFFFFFFFFFFFFFFFFFFFFFFFFFF1D
:1003F000FFFFFFFFFFFFFFFFFFFFFFFFFFFFFFFF0D
:10040000FFFFFFFFFFFFFFFFFFFFFFFFFEFFFFFFFD
:1004100008B54DF64C70074BC1F6FF701B1A062B42
:1004200000D808BD40F20003C0F20003002BF8D052
:100430009847F6E74FDFFF1F08B54DF64C704DF6B5
:100440004C73C1F6FF70C1F6FF731B1A9B1003EBD0
:10045000D373591000D108BD40F20002C0F200026F
:10046000002AF8D09047F6E710B54DF64C74C1F667
:10047000FF74237873B9FFF7CBFF40F20003C0F29B
:1004800000032BB147F27450C0F20100AFF30080BB
:100490000123237010BD00BF08B540F20003C0F275
:1004A00000034BB147F274504DF65071C0F2010099
:1004B000C1F6FF71AFF300804DF64C70C1F6FF70CE
:1004C00003682BB140F20003C0F2000303B1984768
:1004D000BDE80840B0E700BF38B5054CA4F580750D
:1004E0002046103C09F086FFAC42F9D138BD00BF70
:1004F000C8EFFF1F10B5044609F048FE204610BDA6
:1005000070B505460E4610460C4914460DF0BCFD6C
:1005100028B9204600210DF099FD18B101E0074CE3
:1005200000E000244FF08F4120460DF0F1FB0DF06C
:10053000B5FD063645F8260070BD00BF00FEFF463B
:1005400070B505460E4610460C4914460DF09CFD4C
:1005500028B9204600210DF079FD18B101E0074CC3
:1005600000E000244FF08F4120460DF0D1FB0DF04C
:1005700095FD063645F8260070BD00BF00FEFF461B
:1005800010B5044609F077FF204610BD38B5044683
:1005900008460D4608F08EFA236802465B6820463E
:1005A0002946984738BD08B5FFF7F0FF08BD38B5B4
:1005B0000446FFF7EBFF0546204609F01FFE28180A
:1005C00038BD38B5044609F071FE0546204609F0ED
:1005D00015FE281838BD38B50A220023044609F054
:1005E0002DFE0546204609F009FE281838BD0023D7
:1005F00010B5044680E8060003724372C36009F038
:100600002EFC204610BDFFFF0F4B417203600023FC
:1006100002610372C360194603E0026942F82310C5
:100620000133427A9342F8DB084A136813B9106029
:1006300004E013465A69002AFBD158610023436144
:100640008380C380704700BFC05E0100440000206B
:1006500010B5012100F118020446FFF7D5FF094B40
:100660002360002323772385092363850323A38540
:100670005323E3854AF6C0232363A623A38620469B
:1006800010BD00BFF865010010B5022100F1340271
:100690000446FFF7B9FF084B2360084BA361084BE2
:1006A000E3614FF480532362064B63620023A3622D
:1006B000E3622363204610BD1866010002B28E0477
:1006C000E7728E0456F9855A70B506460C46084600
:1006D0001F490DF0BBFC48B920460CF085FE16A35F
:1006E000D3E900230DF064F910B902E0184C00E0E2
:1006F000184C20460CF078FE11A3D3E900230CF02F
:10070000C7FE11A3D3E9002304460D460CF0C0FE3A
:100710000DF058F92946B06120460DF09BF90AF01A
:100720005FFF0CF061FE08A3D3E900230CF0B0FEDC
:100730000DF048F9F06170BD0EBDC5C3C33BD1409B
:10074000D45183C0C8AA023F0000C0FFFFFFDF41B1
:100750000000A0411EDE894610B5042100F12802E8
:100760000446FFF751FF054B23604FF48033A3612C
:10077000E36123626362204610BD00BF386601005A
:1007800010B5102100F158020446FFF73DFF064B5B
:100790004FF4803123600023E2180433402B916131
:1007A000FAD1204610BD00BF28660100002110B517
:1007B0000A460446FFF728FF064B236000232383E5
:1007C0006383E3612362636223856385E36220467A
:1007D00010BD00BF88690100002110B50A4604461B
:1007E000FFF712FF054B23600023A361044B1A8817
:1007F0000132E2611A80204610BD00BF98690100F5
:10080000F0FAFF1F002110B50A460446FFF7FCFE70
:10081000094B0A4923600A4B1A8801FA82F1013216
:100820001A800023636284F8283040F6CC43A1612B
:10083000E3612362204610BD68660100F541ED5E6C
:10084000EEFAFF1F002110B50A460446FFF7DCFE52
:10085000054B2360054BA3610023204684F82A3012
:1008600002F072FF204610BDC06101000110013886
:1008700010B50368017A1C7843681A78437A1A40E5
:10088000837A0C4203F0030318BF43F004030AB158
:1008900043F008039A10013B82720D2B14D8DFE855
:1008A00003F0070A0D0A1310070710130A0D0A07B1
:1008B000C368013307E0C368013B04E0C368023347
:1008C00001E0C368023BC36010BDFFFF08B5034BE6
:1008D000D3F88400FFF7CCFF08BD00BF34FEFF1F34
:1008E00008B5034BD3F88000FFF7C2FF08BD00BF77
:1008F00034FEFF1F08B5024BD86FFFF7B9FF08BDE4
:1009000034FEFF1F08B5024B986FFFF7B1FF08BD1B
:1009100034FEFF1F08B5024B586FFFF7A9FF08BD53
:1009200034FEFF1F08B5024B186FFFF7A1FF08BD8B
:1009300034FEFF1F08B5024BD86EFFF799FF08BDC4
:1009400034FEFF1F08B5024B986EFFF791FF08BDFC
:1009500034FEFF1F08B5024B586EFFF789FF08BD34
:1009600034FEFF1F08B5024B186EFFF781FF08BD6C
:1009700034FEFF1F08B5024BD86DFFF779FF08BDA5
:1009800034FEFF1F08B5024B986DFFF771FF08BDDD
:1009900034FEFF1F08B5024B586DFFF769FF08BD15
:1009A00034FEFF1F08B5024B186DFFF761FF08BD4D
:1009B00034FEFF1F08B5024BD86CFFF759FF08BD86
:1009C00034FEFF1F08B5024B986CFFF751FF08BDBE
:1009D00034FEFF1F08B5024B586CFFF749FF08BDF6
:1009E00034FEFF1F08B5024B186CFFF741FF08BD2E
:1009F00034FEFF1F08B5024BD86BFFF739FF08BD67
:100A000034FEFF1F08B5024B986BFFF731FF08BD9E
:100A100034FEFF1F08B5024B586BFFF729FF08BDD6
:100A200034FEFF1F08B5024B186BFFF721FF08BD0E
:100A300034FEFF1F08B5024BD86AFFF719FF08BD47
:100A400034FEFF1F08B5024B986AFFF711FF08BD7F
:100A500034FEFF1F08B5024B586AFFF709FF08BDB7
:100A600034FEFF1F08B5024B186AFFF701FF08BDEF
:100A700034FEFF1F08B5024BD869FFF7F9FE08BD29
:100A800034FEFF1F08B5024B9869FFF7F1FE08BD61
:100A900034FEFF1F08B5024B5869FFF7E9FE08BD99
:100AA00034FEFF1F08B5024B1869FFF7E1FE08BDD1
:100AB00034FEFF1F08B5024BD868FFF7D9FE08BD0A
:100AC00034FEFF1F08B5024B9868FFF7D1FE08BD42
:100AD00034FEFF1F08B5024B5868FFF7C9FE08BD7A
:100AE00034FEFF1F08B5024B1868FFF7C1FE08BDB2
:100AF00034FEFF1F08B5212800F2D580DFE810F092
:100B0000220027002C00310036003C004100460046
:100B10004B00500055005A005F00640069006E00F1
:100B2000730078007D00820087008C0091009600A1
:100B30009B00A000A500AA00AF00B400B900BE0051
:100B4000C300CD00594B002019605949A0E0574B14
:100B50000120596057499BE0544B02209960564947
:100B600096E0524B0320D960544991E04F4B04204A
:100B70001961024652498CE04C4B0520596151499C
:100B800086E04A4B062099614F4981E0474B072098
:100B9000D9614E497CE0454B082019624C4977E009
:100BA000424B092059624B4972E0404B0A2099623E
:100BB00049496DE03D4B0B20D962484968E03B4B09
:100BC0000C201963464963E0384B0D2059634549B1
:100BD0005EE0364B0E209963434959E0334B0F20BA
:100BE000D963424954E0314B1020196440494FE029
:100BF0002E4B112059643F494AE02C4B1220996436
:100C00003D4945E0294B1320D9643C4940E0274B3E
:100C1000142019653A493BE0244B152059653949A0
:100C200036E0224B16209965374931E01F4B1720DB
:100C3000D96536492CE01D4B18201966344927E048
:100C40001A4B19205966334922E0184B1A2099662D
:100C500031491DE0154B1B20D966304918E0134B74
:100C60001C2019672E4913E0104B1D2059672D4990
:100C70000EE00E4B1E2099672B4909E00B4B1F20FD
:100C8000D9672A4904E0094BC3F88010284920207D
:100C9000042207F059FF012008BD044B2120C3F8AE
:100CA00084102449F4E7002008BD00BF34FEFF1F74
:100CB000E50A0000D50A0000C50A0000B50A0000D8
:100CC000A50A0000950A0000850A0000750A0000C8
:100CD000650A0000550A0000450A0000350A0000B8
:100CE000250A0000150A0000050A0000F5090000A9
:100CF000E5090000D5090000C5090000B50900009C
:100D0000A50900009509000085090000750900008B
:100D1000650900005509000045090000350900007B
:100D2000250900001509000005090000F50800006C
:100D3000E1080000CD08000010B504460520217828
:100D400008F0C0F81520617808F0BCF81420A178EC
:100D500008F0B8F82278034B1A7062785A70A278BB
:100D60009A7010BDF8E0FF1F064B02781A704278A7
:100D70005A7082789A70044B01221A70034B002239
:100D80001A7070475CEDFF1FF0E0FF1F40F6FF1F79
:100D9000F8B5144B0278144C1A7047785F70867857
:100DA0009E7023780A25D01A90FBF5F00CF05CFFBA
:100DB0000E4B18606378F81A90FBF5F00CF054FFB6
:100DC0000B4B1860A378F01A90FBF5F00CF04CFF79
:100DD000084B1860084B00221A70084B01221A7049
:100DE000F8BD00BF50E6FF1FF8E0FF1FF4E0FF1F53
:100DF000A8F7FF1FFCE5FF1FB4F1FF1F88E5FF1FE9
:100E000037B51B4D2B78092B25D81A4C20780CF0C0
:100E10002BFF194B19680CF073FE0DF065F920706B
:100E200060780CF021FF154B19680CF069FE0DF08D
:100E30005BF96070A0780CF017FF114B19680CF08B
:100E40005FFE0DF051F9A0702046FFF775FF2B787B
:100E500001332B7005E00B48FFF76EFF0A4B0022B1
:100E60001A700A4B1B680193019A094B1A603EBD28
:100E7000B4F1FF1FF8E0FF1FF4E0FF1FA8F7FF1F0A
:100E8000FCE5FF1F50E6FF1F88E5FF1F4CFFFF1F1B
:100E90008CE5FF1F30B5052085B0012107F0F6FF76
:100EA000152001211B4C07F0F1FF0121142007F050
:100EB000EDFF1948FFF740FF1821204607F03AFAE6
:100EC000204607F0A7FA01250021802240238DE863
:100ED0002C0020460A46114B07F066F9204607F021
:100EE0003DFA4FF47A7008F0FFF8204607F092FAC6
:100EF000002120460A460A4B06F012FF2046002138
:100F00002A46084B06F00CFF204605B0BDE83040ED
:100F100007F024BA50FAFF1FD4CFFF1FC7CBFF1F23
:100F2000C85E0100D85E01002DE9F0438FB00126B4
:100F30000227924807F06EFA3A4600217F238F4835
:100F40000097019607F0D0F88D4B188800B20CF08E
:100F50008BFE4FF074510CF0DBFE4FF086410CF02D
:100F6000D7FE0DF09BF805240A25C1B200221023FC
:100F700082488DE8500007F088F800217F237F48E1
:100F80002A468DE8600007F0AFF807210C230822FD
:100F90008DE8480079480B4607F0A6F800213A464C
:100FA000784B764806F0BCFE002106A809F063FAEB
:100FB000754B2A4619680AA809F0ADFA0AA906A8CD
:100FC00009F091FA0AA809F015FA002306A804A965
:100FD000224609F002FB69480021032204AB06F017
:100FE0009FFE6A4B2A4619680AA809F094FA0AA9D2
:100FF00006A809F078FA0AA809F0FCF9002306A867
:1010000004A9224609F0E9FA002104225B4804AB56
:1010100006F086FE5E4B2A4619680AA809F07BFA9C
:101020000AA906A809F05FFA0AA809F0E3F9002363
:1010300006A804A9224609F0D0FA00214F4822460A
:1010400004AB06F06DFE534B2A4619680AA809F056
:1010500062FA0AA906A809F046FA0AA809F0CAF92C
:10106000002306A804A9224609F0B7FA06220021A7
:10107000424804AB06F054FE474B0AA8197809F021
:1010800070FA0AA906A809F02EFA0AA809F0B2F91E
:101090000422002306A804A909F09FFA0422374875
:1010A0002A2104AB06F03CFE422134483B4B04228B
:1010B00006F036FE3A4B2A4619680AA809F03EFAAD
:1010C0000AA906A809F00FFA0AA809F093F906A8D8
:1010D00004A92246002309F080FA28482A21062282
:1010E00004AB06F01DFE2F4B24481B7800963021E0
:1010F00033221BB1082306F04BFE02E0082306F062
:10110000EEFE00273A25DFF8B09018E019F8063017
:10111000CDF80080194821462A461BB1042306F069
:1011200037FE02E0042306F0DAFE0A34E4B20136A8
:10113000842CEBD10A3DEDB20437122D04D03E468B
:101140005C244FF00108E1E70C4807F007F9164B63
:101150001B7863B1154B1B680393154B039A1B68EF
:10116000D21A144B1B689A4201D3FFF749FE06A816
:1011700009F040F90FB0BDE8F08300BF50FAFF1F3F
:1011800084E4FF1FEA5E010040E6FF1F44E6FF1F04
:1011900048E6FF1F4CE6FF1F64CBFF1F005F010006
:1011A00074CBFF1FF8E5FF1F88E5FF1F4CFFFF1FF3
:1011B0008CE5FF1FC8CFFF1FA8E9FF1F70B5B14C1A
:1011C000B14D2268B14E28460021FFF7B9F92846F3
:1011D00001212268FFF7B4F9284602212268FFF7AF
:1011E000AFF9284603212268FFF7AAF9284604210F
:1011F0002268FFF7A5F9284605212268FFF7A0F924
:10120000284606212268FFF79BF928460721226815
:10121000FFF796F9284608212268FFF791F928463A
:1012200009212268FFF78CF928460A212268FFF776
:1012300087F928460B212268FFF782F928460C21FE
:101240002268FFF77DF928460D212268FFF778F91B
:1012500028460E212268FFF773F928468C4D226834
:101260000F21FFF76DF9284622680021FFF768F982
:10127000284601212268FFF763F9284602212268E7
:10128000FFF75EF9284603212268FFF759F928463F
:1012900004212268FFF754F9284605212268FFF748
:1012A0004FF9284606212268FFF74AF92846072108
:1012B0002268FFF745F9284608212268FFF740F920
:1012C000284609212268FFF73BF928460A212268AF
:1012D000FFF736F928460B212268FFF731F9284637
:1012E0000C212268FFF72CF928460D212268FFF710
:1012F00027F928460E212268FFF722F92268654C5B
:1013000028460F21644DFFF71BF922683046002163
:10131000FFF7F6F8296820680CF0F0FB012102467F
:101320003046FFF7EDF8286801460CF0E9FB01466E
:1013300020680CF0E3FB022102463046FFF7E0F89C
:10134000286856490CF0E4FC014620680CF0D6FBF6
:10135000032102463046FFF7D3F82868504E4FF07D
:1013600081410CF0D5FC014620680CF0C7FB002140
:1013700002463046FFF7C4F828684A490CF0C8FC1A
:10138000014620680CF0BAFB012102463046FFF707
:10139000B7F8286844490CF0BBFC014620680CF003
:1013A000ADFB022102463046FFF7AAF828683F4904
:1013B0000CF0AEFC014620680CF0A0FB0246304663
:1013C0003B4E0321FFF79CF8226830460021FFF7CF
:1013D00097F8296820680CF091FB012102463046FD
:1013E000FFF78EF8286801460CF08AFB014620685A
:1013F0000CF084FB022102463046FFF781F8286892
:1014000026490CF085FC014620680CF077FB03218F
:1014100002463046FFF774F82868264E4FF08141A7
:101420000CF076FC014620680CF068FB00210246B7
:101430003046FFF765F828681A490CF069FC014648
:1014400020680CF05BFB012102463046FFF758F89C
:10145000286815490CF05CFC014620680CF04EFB36
:10146000022102463046FFF74BF828680F49124D1B
:101470000CF04EFC01462068104C0CF03FFB0321A1
:101480001EE000BF68CBFF1F04E3FF1F70EDFF1FCE
:101490009CE3FF1F6CCBFF1F78CBFF1F0000404079
:1014A00080F3FF1F0000A0400000C0400000E040AB
:1014B000C8F3FF1F00F4FF1FA8EDFF1F70CBFF1F35
:1014C00002463046FFF71CF8284600212268FFF745
:1014D00017F8284601212268FFF712F82846022152
:1014E0002268FFF70DF828460D4D22680321FFF70B
:1014F00007F8284622680021FFF702F80121284654
:101500002268FEF7FDFF284602212268FEF7F8FF59
:10151000226828460321BDE87040FEF7F1BF00BFF6
:1015200038F4FF1FF0B5094F002233260C25AE24F6
:1015300049F6991040F24F41D3590432402A5E8552
:101540009D85DC8518639986F6D1F0BDD8CFFF1F45
:1015500010B5094C0948402108F0A8FB204602F0CC
:10156000D3FF5A21204603F065F8FFF727FEBDE8B8
:101570001040FFF7D7BF00BFACE4FF1F0082FF1F82
:1015800008B5084B08481A780A2142F005021A707B
:1015900005F04DF820B94FF4FA7007F0A5FDFAE711
:1015A00008BD00BF6E00002078FBFF1F10B5044689
:1015B00008F020FF204610BD7FB5AD4EAD4DAE4CBE
:1015C00031466846FEF7DCFF2946684608F0EEFF24
:1015D000AA4908F0F4FF0146204608F07CFF68465F
:1015E000FFF7E4FF31466846FEF7CAFF2946684622
:1015F00008F0DCFFA24908F0E2FF014604F1100008
:1016000008F069FF6846FFF7D1FF31466846FEF7EC
:10161000B7FF2946684608F0C9FF9A4908F0CFFF8E
:10162000014604F1200008F056FF6846FFF7BEFFB0
:1016300031466846FEF7A4FF2946684608F0B6FF23
:10164000914908F0BCFF014604F1300008F043FF67
:101650006846FFF7ABFF31466846FEF791FF294623
:10166000684608F0A3FF894908F0A9FF014604F184
:10167000400008F030FF6846FFF798FF31466846A3
:10168000FEF77EFF2946684608F090FF804908F083
:1016900096FF014604F1500008F01DFF6846FFF771
:1016A00085FF31466846FEF76BFF2946684608F01D
:1016B0007DFF784908F083FF014604F1600008F0DF
:1016C0000AFF6846FFF772FF31466846FEF758FF8B
:1016D0002946684608F06AFF6F4908F070FF014626
:1016E00004F1700008F0F7FE6846FFF75FFF31462F
:1016F0006846FEF745FF2946684608F057FF6749E8
:1017000008F05DFF014604F1800008F0E4FE684641
:10171000FFF74CFF31466846FEF732FF2946684620
:1017200008F044FF5E4908F04AFF014604F19000CA
:1017300008F0D1FE6846FFF739FF31466846FEF7EC
:101740001FFF2946684608F031FF564908F037FF69
:10175000014604F1A00008F0BEFE6846FFF726FF30
:1017600031466846FEF70CFF2946684608F01EFF22
:101770004D4908F024FF014604F1B00008F0ABFE2B
:101780006846FFF713FF31466846FEF7F9FE294623
:10179000684608F00BFF454908F011FF014604F1C7
:1017A000C00008F098FE6846FFF700FF3146684623
:1017B000FEF7E6FE2946684608F0F8FE3C4908F0C8
:1017C000FEFE014604F1D00008F085FE6846FFF7F2
:1017D000EDFE31466846FEF7D3FE2946684608F01E
:1017E000E5FE344908F0EBFE014604F1E00008F0A4
:1017F00072FE6846FFF7DAFE31466846FEF7C0FE25
:101800002946684608F0D2FE2B4908F0D8FE01466A
:1018100004F1F00008F05FFE6846FFF7C7FE274BB3
:1018200000224FF4CE4E83E804404FF4D7229A6052
:1018300002F54C42DA60224A1A61224A5A614FF498
:101840007B229A6102F54C42DA611F4A1A621F4AF2
:101850005A621F4A9A621F4ADA6202F54C421A63C0
:101860001D4A5A631D4A9A631D4ADA637FBD00BF51
:10187000045F010054E6FF1FD8EEFF1F065F010062
:101880000E5F0100165F01001E5F0100265F010070
:101890002E5F0100365F01003E5F0100465F0100E0
:1018A0004E5F0100575F0100605F0100695F01004A
:1018B000725F01007B5F0100845F010020EEFF1F6B
:1018C000007B0B0000410F0000DD120000CE18006D
:1018D000004A24000073280000362D0000972F00D6
:1018E000004E380008B5FFF74BFEBDE80840FFF793
:1018F00063BE0B7903718B6883600B7B30B5037318
:1019000000F10D0201F10D0301F1190453F8045B1C
:10191000A34242F8045BF9D11B781370CB69C36111
:1019200030BDFFFFF0B53F4B3F4A404C4049414876
:101930008BB0012602AD1E60002313602360FEF70A
:1019400036FE28463C493D4A334604F005FF3C48F4
:101950002946FFF7CEFF284604F02AFE012228463A
:10196000374904F04BFF29463648FFF7C2FF2846A7
:1019700004F01EFE334804F053FE00284ED02368C6
:10198000294E30481B023360264B1F6804F016FEB8
:1019900031680346009127482B493A4608F042FC3B
:1019A000FF214FF4807229480DF0F2FC27492548A9
:1019B0004FF4807204F004FE012207462168244897
:1019C00003F0DAF90023DFF884C0DFF884E01A4678
:1019D00013F80C0013F80E100133411AB3F5807F91
:1019E0000A44F5D12AB113481A49FEF7E0FD002058
:1019F00015E03368FB18336023680133B7F5807F47
:101A00002360CDD014490B4808F00CFC0D4804F0BD
:101A1000FBFD044B1A6801321A609FE701200BB0EE
:101A2000F0BD00BF5CE8FF1FE0EFFF1F80F4FF1F69
:101A30008D5F01009000002078FBFF1F955F010083
:101A400088FAFF1FD8E5FF1F9E5F0100F4F8FF1F13
:101A500070E8FF1F69600100C65F01002DE9F041D9
:101A6000334A3449344C8AB00123136002AD00225A
:101A70000A60226028463149314A04F06DFE31483F
:101A80002946FFF736FF284604F092FD012228463A
:101A90002C4904F0B3FE29462B48FFF72AFF2846BD
:101AA00004F086FD284804F0BBFD00283CD0214E00
:101AB0001F4F33682448D7F800801B02236004F0CE
:101AC0007DFD21680346009142462049204808F0E8
:101AD000A9FB396823681F4A42F82130FF214FF4DF
:101AE00080721D480DF054FC1B4917484FF480725A
:101AF00004F066FD23683168C31807461648236062
:101B000003F004F933680133B7F5807F3360E5D023
:101B100012490F4808F086FB0B4804F075FD044B92
:101B20001A6801321A60B1E70AB0BDE8F08100BF5F
:101B30005CE8FF1F80F4FF1FE0EFFF1F78FBFF1F33
:101B4000955F010088FAFF1FD8E5FF1FCC5F0100F9
:101B50009000002020EEFF1FF4F8FF1FF35F01004C
:101B600010B5064C06492046FEF721FD012003F082
:101B7000A7F820460349FEF71AFD10BD900000208B
:101B8000FB5F01000C600100F0B58DB004AC0123D7
:101B90004A4A4B494B4F4C4E204604F0DDFD21464E
:101BA0004A48FFF7A6FE204604F002FD00233B60F2
:101BB000012220464549336004F020FE2146444876
:101BC000FFF797FE204604F0F3FC414804F028FD9F
:101BD000D0B13F4804F001FD10F0FF0F0CBF0546E7
:101BE00040F0FF053A4804F0E9FC2B46024639492B
:101BF000394808F017FB3B683548ED183D6004F0A4
:101C000003FD33680133D3E730482E4D04F0FCFC6C
:101C10002D4B31481A6831492B6808F003FB2B68BB
:101C2000002B44D0B3F1807F3DD202F0EDFF02F0F3
:101C3000D9FF2B4C0646204603F028F8627823781B
:101C40000092A27824480192E27826490292324614
:101C500008F0E8FA2378EF2B07D16378402B04D102
:101C6000A378182B01D1E37813B11B481E490FE06C
:101C70002A681E491848C2F1807208F0D3FA1C493C
:101C80001548FEF790FCFFF74DFE20B112481949A8
:101C9000FEF78DFC03E0FFF763FFFFF7DFFE0B4865
:101CA00004F0B2FC03E00C481349FEF780FC134932
:101CB0000948FEF77CFC0DB0F0BD00BF955F010048
:101CC00078FBFF1F04E7FF1F5CE8FF1F88FAFF1F78
:101CD000D8E5FF1F12600100900000202260010083
:101CE0000CE8FF1F3C6001006860010074600100A7
:101CF000B5600100CB600100DA600100E86001001E
:101D000008B51B21074A1C2006F0B6FC0023064A32
:101D10001946D1540133202BFBD1044B00221A70F9
:101D200008BD00BF986A0100A8E9FF1FD0F7FF1F98
:101D300010B5044690B9264808F028FA25492648E7
:101D4000FEF735FC254B244819780A22234608F073
:101D500075FA23492048FEF72AFC10BD0BF080FFDE
:101D6000014620480CF088F81F4B044618780BF009
:101D70007BFF014620460CF07FF81C490BF0C8FFA2
:101D80001A490BF0C5FF0CF089F900280ADB184B43
:101D9000421E9A4206D83022424316490C48013A64
:101DA00008F0FDF90D4B0C4819780A22002308F0C1
:101DB00045FA09481049FEF7FAFB104B08221A8031
:101DC0000F4B10221A800F4B18221A8010BD00BF33
:101DD00048EDFF1FEF6001009000002064CBFF1F63
:101DE000005F010000007042D3CFFF1F00007A4463
:101DF00054555505C523000000610100D8EFFF1FB1
:101E0000DAEFFF1FDCEFFF1F70B514491448FEF72F
:101E1000CEFB0020134A1826014606FB00F3D51816
:101E20000130202829740F4CD154D154D154D154AD
:101E3000D154D154D154D154D154D154D154D1547A
:101E4000D154D154D154D154E7D1012378202376F1
:101E500084F82830BDE87040FFF76ABF08610100D0
:101E600090000020E8E9FF1F1920022107F00EB8BA
:101E700010B50A2006F028FD04242D4B90FBF4F049
:101E800018600B2006F020FD2A4B90FBF4F0186040
:101E90000C2006F019FD284B90FBF4F018600D2083
:101EA00006F012FD254B264C18600BF0D9FE254993
:101EB0000BF0E2FF24490BF02BFF0BF095FA1AA36D
:101EC000D3E900230BF032F90BF0A4FD01461F48C3
:101ED00002F0B0FB237C72B6012B02D82046FEF73D
:101EE000C7FCE16862B61A4A1368994209D0194BD7
:101EF00010681C78081A2018187011601878FFF7FD
:101F000017FF154805F0A2FE58B1134805F0BCFEB6
:101F10001249134B012210B10A70002200E0087030
:101F20001A7010BDAFF30080560E2DB29DEFDF3F4B
:101F300040E6FF1F44E6FF1F48E6FF1F4CE6FF1F79
:101F4000ACF7FF1F00C07F4400000143ACE4FF1F5B
:101F500074CBFF1F64CBFF1FC8EEFF1FF8E5FF1F08
:101F60007CCBFF1FAFF300803D4B3E4A3E492DE93D
:101F7000F04FDA613D4AD1614EF266621A623C4B23
:101F80004FF4417240F2E1315A85DA859985DD22BC
:101F900044F6CC419A861963364B41F699121A835E
:101FA000354A5A620022DA6101221A85334B344ADB
:101FB0005A624FF4C0521A62324A9A61823ADA6126
:101FC000314B38225A856F22DA854FF4DD729A86BA
:101FD0002E4B4C225A724F229A725122DA7254229C
:101FE0004B241A734FF03C0B4FF03E0A4FF03F0961
:101FF0004FF040084FF0430C452748264A2556200D
:10200000572158221C7283F800B083F801A083F88E
:10201000029083F8038083F804C05F719E71DD71C4
:1020200058739973DA731A4B1C724C245C724F24E8
:102030009C725124DC72542483F800B083F801A010
:1020400083F8029083F8038083F804C05F719E7167
:10205000DD711C7358739973DA73BDE8F08F00BF9C
:1020600024F7FF1F6A6D0700852A220048F7FF1F2B
:1020700044F6FF1F58FAFF1F3167A30034E7FF1F24
:10208000CCCCCC0CCD56E90068DFFF1F70F4FF1FED
:10209000D1F7FF1FFFFFFFFF38B5374B93F9003033
:1020A000002B0D460BDB354C0B232046A38602F09C
:1020B000C9FB032007F018F84FF4DD73A3862E4BFD
:1020C00028461D700BF0CCFD2D490BF017FD2D4956
:1020D0000BF0D2FE01464FF0804009F0BDFA2A49CC
:1020E0000BF016FE294A00239361294A0446294829
:1020F000936102F092FB204600210BF0A7FF50B93C
:1021000020460BF071F918A3D3E900230BF050FC23
:1021100018B9204602E0002000E01F480BF064F9E7
:1021200013A3D3E900230BF0B3F900221B4B0AF0F1
:10213000FDFF0BF06FFC1A4B00225862DA6120465B
:102140000BF052F94FF03332164B0BF0A1F90BF0B4
:1021500081FC01461448FEF7B7FA0848BDE838404C
:1021600002F05BBBAFF30080522CB7B4B48AD54009
:102170005202FF7889C4E740D2CFFF1F68DFFF1FFC
:1021800000008A42000040410000DC4324F7FF1FAA
:1021900048F7FF1F44F6FF1FA655AC460000E03F7E
:1021A00058FAFF1F3333F33F34E7FF1FAFF30080CC
:1021B00010B5064C23788B4207D1054802F042FB4C
:1021C000044802F03FFBFF23237010BDD2CFFF1F56
:1021D00068DFFF1F44F6FF1F394B10B518680BF07E
:1021E0003FFD04460BF000F92FA3D3E900230BF0C9
:1021F000DFFB00B1334C20460BF0F6F82CA3D3E9FB
:1022000000230BF045F90BF005FC2F4BD8612F4B49
:1022100018680BF025FD04460BF0E6F822A3D3E97D
:1022200000230BF0C5FB00B1264C20460BF0DCF878
:102230001FA3D3E900230BF02BF90BF0EBFB244B8E
:10224000D861244B18680BF00BFD01462248FEF7BD
:102250003BFA224B18680BF003FD04460BF0C4F860
:1022600015A3D3E900230BF085FB28B920461C49B0
:102270000BF00AFF10B902E01A4C00E0184C20469F
:102280000BF0B2F802460B46002017490BF02AFA71
:10229000164B00220BF0FCF80BF094FB0E4B58622F
:1022A00010BD00BFAFF30080522CB7B4B48AD54044
:1022B0005202FF7889C4F740666666666666E63F46
:1022C00040E6FF1FA655AC4624F7FF1F44E6FF1F5C
:1022D00048F7FF1F48E6FF1F34E7FF1F4CE6FF1FCC
:1022E0000000A0403333333F0000F03F0000D041F6
:1022F000F8B5274B1D78044615B1022D46D13DE0B7
:1023000024482549254F00EB04102B4682680132F2
:1023100008F063F9224B234923484FF080461E60A2
:10232000FEF741F90A222B4657F824101F4D1E488C
:1023300007F084FF1C4807F061FF57F8241055F898
:1023400024001B4F01F06EFF55F82400182502F001
:1023500085F865437B191861164B53F8240002F089
:102360005CFA01237B55144B14491E600E48FEF79E
:102370001AF9611C0C48FEF724F9F8BD104B002037
:10238000195D0246BDE8F840FFF786BEF8BD00BF04
:10239000A4F7FF1FD8EEFF1F04FAFF1F20EEFF1F58
:1023A00088E100E0266101009000002084CBFF1F3F
:1023B000B8F1FF1FD8CFFF1F08E100E03561010031
:1023C00070F4FF1F6A4B70B51C886A4E24B2182542
:1023D000654373191B7C002B00F0948066496748A5
:1023E000FEF7E1F865482146FEF7EBF8735D13B19F
:1023F0000020FFF77DFF5F4A182303FB04211546E9
:1024000049781E4611B10120FFF772FF06FB045503
:10241000AB7813B10220FFF76BFF564A182303FB7A
:1024200004211546C9781E4611B10320FFF760FF4D
:1024300006FB04552B7913B10420FFF759FF4D4AD1
:10244000182303FB0421154649791E4611B10520C6
:10245000FFF74EFF06FB0455AB7913B10620FFF7DB
:1024600047FF444A182303FB04211546C9791E4639
:1024700011B10720FFF73CFF06FB04552B7A13B17F
:102480000820FFF735FF3B4A182303FB04211546BC
:10249000497A1E4611B10920FFF72AFF06FB0455B1
:1024A000AB7A13B10A20FFF723FF324A182303FB4C
:1024B00004211546C97A1E4611B10B20FFF718FFFB
:1024C00006FB04552B7B13B10C20FFF711FF294AA3
:1024D000182303FB04211546497B1E4611B10D202C
:1024E000FFF706FF06FB0455AB7B13B10E20FFF789
:1024F000FFFE204B182202FB0434E37B13B10F20B4
:10250000FFF7F6FE1A4B1A8812B2202A05DD0022C8
:102510001B481A80FEF728FC02E01A8801321A8054
:10252000184B1B78002B21D0114B1A8892B212B98C
:102530001548164908E016491A88B1F9001012B278
:10254000914205D110481349BDE8704003F028B806
:1025500011491A88B1F9001012B29142F2D00F4A13
:102560001B88B2F900201BB29A42EBD070BD00BFAD
:1025700084E4FF1FE8E9FF1F1861010090000020BC
:10258000C4CBFF1F1CEEFF1F48E1FF1FB04201003C
:10259000D8EFFF1F34510100DAEFFF1FDCEFFF1F00
:1025A00070B5164B1B78044613B1022B24D11BE0E7
:1025B000134B4FF080451D60124B182606FB00366A
:1025C0007378CBB1104B53F8200002F03BF9012394
:1025D000B3700E4B0E491D600E48FDF7E4FF611C01
:1025E0000C48FDF7EEFF70BD0B4B0020195D024655
:1025F000BDE87040FFF7DCBD70BD00BFA4F7FF1F52
:1026000088E100E0B8F1FF1FD8CFFF1F08E100E02C
:10261000426101009000002070F4FF1F2DE9F0419D
:10262000AB4FDFF8B482AB4E00233B7094E1012541
:102630003D7005F0F5FFD8F80030C4B21B68A6481D
:1026400021469847A44807F0D9FD622C0DD106F029
:102650000BF8A24C28B10020FFF7A2FF0023237043
:1026600076E1FFF745FE257072E16C2C0ED105F086
:10267000FBFF9A4C28B12846FFF792FF00236370B6
:1026800066E12846FFF734FE657061E16D2C0ED1DE
:1026900005F0EAFF914C28B10220FFF781FF0023EB
:1026A000A37055E10220FFF723FEA57050E1632CD3
:1026B0000ED105F0D9FF894C28B10320FFF770FF38
:1026C0000023E37044E10320FFF712FEE5703FE1D1
:1026D000612C0ED105F0C8FF804C28B10420FFF713
:1026E0005FFF0023237133E10420FFF701FE257112
:1026F0002EE16A2C0ED105F0B7FF784C28B10520E9
:10270000FFF74EFF0023637122E10520FFF7F0FD84
:1027100065711DE16E2C0ED105F0A6FF6F4C28B13E
:102720000620FFF73DFF0023A37111E10620FFF70C
:10273000DFFDA5710CE1342C0ED105F095FF674C3F
:1027400020B10720FFF72CFF002303E00720FFF74D
:10275000CFFD0123E371FBE0672C0ED105F084FF70
:102760005E4C20B10820FFF71BFF002303E0082088
:10277000FFF7BEFD01232372EAE06F2C0ED105F0B6
:1027800073FF564C20B10920FFF70AFF002303E036
:102790000920FFF7ADFD01236372D9E0682C0ED14B
:1027A00005F062FF4D4C20B10A20FFF7F9FE00232F
:1027B00003E00A20FFF79CFD0123A372C8E0332C3D
:1027C0000ED105F051FF454C20B10B20FFF7E8FE7C
:1027D000002303E00B20FFF78BFD0123E372B7E03A
:1027E000792C0ED105F040FF3C4C20B10C20FFF7B6
:1027F000D7FE002303E00C20FFF77AFD01232373AB
:10280000A6E0692C0ED105F02FFF344C20B10D202D
:10281000FFF7C6FE002303E00D20FFF769FD01234B
:10282000637395E0312C0ED105F01EFF2B4C20B1C7
:102830000E20FFF7B5FE002303E00E20FFF758FD42
:102840000123A37384E0642C0ED105F00DFF234C0B
:1028500020B10F20FFF7A4FE002303E00F20FFF7B5
:1028600047FD0123E37373E0762C71D0662C06D10B
:1028700005F0FAFE00286BD1FFF786F968E0742CAA
:1028800066D06B2C64D0352C62D0752C05D105F048
:10289000EBFE00285CD1124806E0652C07D105F05C
:1028A000E3FE002854D10F48FEF772FA50E0702C76
:1028B00005D105F0D9FE00284AD10B48F4E7732C66
:1028C00016D105F0D1FE002842D10848ECE700BF40
:1028D000D0F7FF1FA4F7FF1F90000020A8E9FF1FFB
:1028E000C4CBFF1F18D0FF1F65CBFF1FCCCFFF1F2E
:1028F000712C08D105F0B8FE044648BB1A48FEF713
:1029000047FA347024E0722C07D105F0ADFEF8B917
:102910001648FEF73DFA012312E0302C07D105F0EE
:10292000A3FEA8B91248FEF733FA022308E0322CBE
:1029300008D105F099FE58B90E48FEF729FA03238D
:10294000337005E0D8F800300B481B6821469847E3
:102950003B780BB1FEF7E8FA05F04EFE00287FF455
:1029600066AEBDE8F08100BFD4CFFF1FCFCFFF1F01
:102970007DCBFF1FCCCFFF1F9000002010B5094B6F
:10298000094C0122DA70206801F03CFDB0F57A7F35
:1029900006D9206801F036FD01460448FDF71BFE0C
:1029A00010BD00BFB8F1FF1F84CBFF1F90000020B7
:1029B0001D4B2DE9F04100261C4C1E7035460127A9
:1029C0004FF0FF0831461A4804F8085C04F8077C09
:1029D00004F8065C04F8057C04F8045C2560656076
:1029E000A560257384F80D8007F060FC114910483C
:1029F000FDF7D9FD104801F005FD0A22002301462C
:102A00000B4807F01BFC0D490948FDF7CCFD0A48AF
:102A100001F024FD013601460548FDF7DCFD1834C0
:102A2000102ECFD1BDE8F081A4F7FF1FC0F1FF1F2A
:102A3000900000204F6101001CE2FF1F5361010064
:102A400010B50D4C0D492046FDF7B1FDFEF722FAF9
:102A5000FEF77EFDFFF708FAFEF744FFFFF750F997
:102A6000FFF7A6FFFFF780FAFFF7CEF920460449EB
:102A7000FDF79DFD10BD00BF9000002056610100D4
:102A80006E610100FFFFFFFF2DE9F0433E4C3F4F19
:102A90003F49404EDFF81881DFF8189185B0204695
:102AA000FDF781FD38880AF08DFC33A3D3E90023BC
:102AB0000AF03CFB32A3D3E900230AF013FE0225FF
:102AC00002460B460095204607F0FAFB32492046A5
:102AD000FDF769FD30880AF075FC27A3D3E90023D0
:102AE0000AF024FB26A3D3E900230AF0FBFD00959E
:102AF00002460B46204607F0E3FB28492046FDF737
:102B000052FD98F8000000020BF0AEF84FF06A5149
:102B10000BF0FEF80AF068FC009502460B462046D2
:102B200007F0CEFB1E492046FDF73DFD99F8000059
:102B300000020BF099F84FF06A510BF0E9F80AF037
:102B400053FC009502460B46204607F0B9FB204691
:102B50001449FDF72CFD144B1B680393039A134B88
:102B60001A603B88338098F8003089F8003005B04F
:102B7000BDE8F083AFF30080C077265C8FC255407C
:102B8000C077265C8FC26540900000206C0000205A
:102B900086610100520000208C61010090610100FB
:102BA0009F610100A46101004CFFFF1F88E4FF1F2B
:102BB000510000204800002007B50E4B1B68019310
:102BC0000D4B019A1B68D21A0C4B1B689A4201D319
:102BD000FFF75AFFFFF722FDFFF74AF9FFF7FCFA6C
:102BE000074805F071FD012801D1FEF79DF9FFF7B7
:102BF000C5FE0EBD4CFFFF1F88E4FF1F80CBFF1FEB
:102C000044FAFF1F2DE9F74FB44AB548B54FDFF836
:102C100020A4DFF8209400264FF001084FF0020BAB
:102C2000032304252121D370157182F800B082F8A6
:102C30000180967005F06CFD31463246AA48AB4DD6
:102C4000FDF7E2FCA84BAA4AAA481A6083F826605E
:102C5000FDF7F8FDA848FDF7F5FDA848FDF7F2FDE2
:102C6000A748FDF7EFFDA748FDF7ECFDA648FDF7E7
:102C7000E9FDA648FDF7E6FDA548FDF7E3FDA548FB
:102C8000FDF7E0FDA448FDF7DDFDA448FDF7DAFD02
:102C9000A348FDF7D7FDA348FDF7D4FDA248FDF7F3
:102CA000D1FDA248FDF7CEFDA148FDF7CBFDA1481F
:102CB000FDF7CEFCA048FDF7CBFCA048FDF7C8FC13
:102CC0009F48FDF7C5FC3846FDF7C2FC9D48FDF75F
:102CD000BFFC9D48FDF7BCFC9C48FDF7B9FC9C4837
:102CE000FDF7B6FC9B48FDF7B3FC9B48FDF7B0FC35
:102CF0009A48FDF7ADFC9A48FDF7AAFC9948FDF704
:102D0000A7FC9948FDF7A4FC9848FDF7A1FC3146C3
:102D100032469748FDF778FC954A964815604FF47F
:102D200080441462FDF742FD314632469248FDF779
:102D30006BFC914B59460AF118021C6250468F4CAD
:102D40001D60FDF761FC8E48CAF80040FDF780FC6D
:102D50008C488D4DFDF798FC8C48FDF779FC8C482C
:102D6000FDF724FD8B48FDF721FD8B48FDF71EFD87
:102D70008A48FDF7F1FCDFF8C0C26046CDF804C018
:102D8000FDF72AFD864B18460093FDF73BFD85486D
:102D9000FDF7E2FC8448FDF7DFFC7B48594600F173
:102DA0001802FDF731FC2C608048814D814CFDF705
:102DB0004FFC8148FDF768FC2846FDF7E1FC204602
:102DC000FDF7DEFC7D48FDF7C7FC7D48FDF7C4FC40
:102DD0007C48FDF7C1FC7C48FDF7BEFC7B48FDF755
:102DE000FBFC7B48FDF7F8FC7A48FDF70BFD7A48C1
:102DF000FDF708FD7948FDF7AFFC7948FDF7ACFC1D
:102E0000594609F118024846FDF7FEFB754A484647
:102E1000C9F8002002F0C8F93E49464A7248FDF759
:102E2000E6FB3A49444A7148FDF7E1FB3B49434A16
:102E30006F48FDF7DCFB3A49414A6E48FDF7D7FB86
:102E40003A4633496C48FDF7D2FB2F493D4A6B485F
:102E5000FDF7CDFB2B493C4A6948FDF7C8FB2549E6
:102E60003A4A6848FDF7C3FB2349394A6648FDF7EB
:102E7000BEFB2249374A6548FDF7B9FB2049364A6F
:102E80006348FDF7B4FB2949344A6248FDF7AFFBBC
:102E90002749334A6048FDF7AAFB1F49314A5F487A
:102EA000FDF7A5FB2049304A5D48FDF7A0FB1D4911
:102EB0002E4A5C48FDF79BFB5B481E4A067280E881
:102EC00024004672C66006F0CAFF5848194A0672C6
:102ED00080E814004672C660B0E000BF50FAFF1FE1
:102EE00044FAFF1F9CF0FF1F48E1FF1F78690100B3
:102EF000586601001CE2FF1F58E2FF1FF0EDFF1FA4
:102F000024F8FF1FF0E1FF1FC0E7FF1F84F4FF1F3D
:102F1000ECF4FF1F0CE1FF1FA8F8FF1FB0F4FF1F28
:102F200008E7FF1F8CEEFF1F60EEFF1F50F8FF1F2A
:102F30007CF8FF1FE4EFFF1F1CF0FF1F54F0FF1F82
:102F400064E6FF1FD4F0FF1F0CF1FF1F44F1FF1FC9
:102F50007CF1FF1F7CF6FF1FB4F6FF1FECF6FF1F8E
:102F600058F5FF1F6CF7FF1FB0F5FF1FE8F5FF1FB7
:102F700024F7FF1F58FAFF1F48F7FF1F08660100DC
:102F800044F6FF1F34E7FF1FF8ECFF1F68DFFF1F49
:102F900040E0FF1F70E0FF1FA0E0FF1FACE6FF1F37
:102FA000D8E4FF1F70E9FF1F90E5FF1F48F3FF1FE4
:102FB00004E3FF1F9CE3FF1F70E7FF1F70EDFF1F7F
:102FC00080F3FF1FC8F3FF1F00F4FF1F90F5FF1FE2
:102FD000D0E0FF1FA4E2FF1FD4E2FF1FA8EDFF1FF8
:102FE00038F4FF1F4866010038F3FF1F70E1FF1F30
:102FF000B8F3FF1F90E1FF1FA0E1FF1FB0E1FF1F2B
:10300000C0E1FF1FD0E1FF1FE0E1FF1F28E5FF1F28
:1030100038E5FF1F48E5FF1F58E5FF1F68E5FF1F64
:1030200078E5FF1FA0DFFF1F80E1FF1F20F6FF1FD5
:1030300020E6FF1F18EDFF1F64E4FF1F06F00FFFDF
:10304000BA48BB4A067280E8240080F80980C6604E
:1030500006F005FFB748B64A067280E8140080F80B
:103060000980C66006F0FBFEB348B44A067280E8E9
:10307000240080F809B0C66006F0F1FEB048AF4AFF
:10308000067280E8140080F809B0C66006F0E7FE1A
:10309000AC48AD4A067280E8240003224272C66042
:1030A00006F0DDFEA948A84A067280E81400032253
:1030B0004272C66006F0D3FEA54804220760456050
:1030C00042720672C66006F0CAFEA2480422076079
:1030D000446042720672C66006F0C1FE9E489F4A76
:1030E0000672052780E824004772C66006F0B7FE26
:1030F0009B489A4A477280E814000672C66006F040
:10310000AEFE9848984A0672062780E82400477267
:10311000C66006F0A4FE9548934A477280E8140002
:103120000672C66006F09BFE9148924A0672072717
:1031300080E824004772C66006F091FE8E488D4AF2
:10314000477280E814000672C66006F088FE8B485D
:103150008B4A0672082780E824004772C66006F092
:103160007EFE8848864A477280E814000672C66070
:1031700006F075FE8448854A0672092780E8240017
:103180004772C66006F06BFE8148804A477280E84D
:1031900014000672C66006F062FE7E487E4A067221
:1031A0000A2780E824004772C66006F058FE7B4874
:1031B000794A477280E814000672C66006F04FFE36
:1031C0007748784A06720B2780E824004772C66069
:1031D00006F045FE7448734A477280E81400067290
:1031E000C66006F03CFE7148714A06720C2780E802
:1031F00024004772C66006F032FE6E486C4A477281
:1032000080E814000672C66006F029FE6A486B4A20
:1032100006720D2780E824004772C66006F01FFE84
:103220006748664A477280E814000672C66006F076
:1032300016FE6448644A06720E2780E8240047722E
:10324000C66006F00CFE61485F4A477280E81400D1
:103250000672C66006F003FE5D485E4A06720F27DE
:1032600080E824004772C66006F0F9FD5A48594AC2
:10327000067280E814004772C66006F0F0FD5748F9
:103280000560574D067245604672C66006F0E7FD60
:103290005448554A0460426006724672C660534DF7
:1032A00006F0DDFD524880E8200406724672C660D2
:1032B000504D06F0D4FD5048504A80E82400067274
:1032C0004672C66006F0CBFD4D484E4A067280E855
:1032D000040480F80980C66006F0C1FD51464A4AE0
:1032E0004A48494DFDF783F94948424A0560426022
:1032F000067280F80980C6603E4D06F0B0FD454874
:10330000454A05604260444D06724672C66006F04A
:10331000A6FD4248324A05604260067280F8098084
:10332000C66006F09CFD3E4805607BE030F6FF1F5E
:103330001CF0FF1FE4F7FF1F8CF0FF1F54F0FF1F6E
:1033400018F5FF1F28F5FF1F64E6FF1F38F5FF1F64
:1033500048F5FF1FFCE0FF1F38E1FF1FD4F0FF1FFF
:103360009CE6FF1F14F8FF1F0CF1FF1FDCF4FF1F8A
:10337000F4F7FF1F44F1FF1F04F8FF1F00E6FF1FD3
:103380007CF1FF1F10E6FF1F8CE4FF1F7CF6FF1F80
:10339000D4F8FF1FE4F8FF1FB4F6FF1FB0DFFF1FD4
:1033A000F0DFFF1FECF6FF1F00E0FF1F10E0FF1F24
:1033B00058F5FF1F20E0FF1FC0DFFF1F6CF7FF1F46
:1033C000D0DFFF1FE0DFFF1FB0F5FF1FB8EEFF1FCC
:1033D00030E0FF1FE8F5FF1F34E4FF1F44E4FF1F48
:1033E000A8EDFF1F54E4FF1F38F4FF1F24F7FF1F51
:1033F000ECE7FF1F34E7FF1FFCE7FF1F58FAFF1F32
:10340000E4E6FF1F48F7FF1F44F6FF1F2CE8FF1FED
:103410003CE8FF1F4CE8FF1F68DFFF1FACE7FF1F02
:1034200060E8FF1F994D0672456080F80980984D4D
:10343000C66006F014FD9748974A80E8240006729B
:103440004672C66006F00BFD9448954A067280E805
:10345000240080F80980C660924D06F000FD924875
:103460008B4A05604260914D067280F809B0C660D3
:1034700006F0F5FCDDF804C08D48C0F800C04560DA
:1034800006724672C66006F0EAFC8A48009B067225
:1034900080E8280080F80980C66006F0E0FC8648D5
:1034A0007B4A864B80E80C0006724672C66006F0C6
:1034B000D6FC83480560814D0672456080F809801E
:1034C000C66006F0CCFC7F487F4B764A80E80C0053
:1034D00006724672C660754D06F0C1FC7B487A4A9A
:1034E000056042607A4D067280F80980C66006F079
:1034F000B6FC7848714B80E8280006724672C660B8
:1035000006F0ADFC7448704A067280E8240080F82A
:103510000980C66006F0A3FC7048714B05604360EB
:103520006F4D06724672C66006F099FC6D486E4A91
:1035300005604260067280F809B0C66006F08FFC34
:103540006A48524B05604360694D067280F809B0C5
:10355000C66006F084FC6748634A05600323437233
:1035600042600672C66006F07AFC63480560474D0B
:103570000672032242724560C66006F070FC5A4B28
:103580005E4880E8080206724672C66006F067FC74
:103590005B4880E82002067280F80980C66006F069
:1035A0005EFC5849584A5948116002F0F3FF5849E7
:1035B000584A5648584D0BF07BFA584802F0EAFF3B
:1035C00056485349534A0BF073FA344628190021E0
:1035D000103406F050FFB4F5807FF7D14D4A5049C2
:1035E00000200BF065FA4F494F4806F044FF4F4961
:1035F000484A4D480BF05CFA4D4805F03BF84D4801
:10360000444A4D4980230024437304700BF050FA60
:103610001820022105F03AFC0820022105F036FCB2
:103620004649474BD1F8C02002F5007018600120D0
:103630001872096C587201F500755D60DC604FF41A
:103640007A400138FDD192F8002291F8001202F080
:10365000010211F0010F1CBF42F00202D2B2384940
:103660009A7218201C46FDF745FA35492074082047
:10367000FDF740FA237C18182074324819210522DE
:1036800003B0BDE8F04F04F0B1BA00BF38F4FF1F3B
:10369000ACE6FF1F9CE4FF1F40E0FF1FB8E4FF1FE4
:1036A00070E0FF1FA0E0FF1F38EDFF1F70E9FF1F54
:1036B00008E5FF1F18E5FF1F60EDFF1F90E5FF1FE6
:1036C00048E2FF1FF4E6FF1FF8ECFF1F84E2FF1F34
:1036D00070E7FF1F94E2FF1FC8E9FF1FD8E9FF1F33
:1036E00048F3FF1FE8ECFF1FA8EDFF1FC8E4FF1F12
:1036F00048E1FF1FC8E5FF1FC0F7FF1FF4F9FF1FD8
:10370000E0EDFF1FD8650100ACE4FF1F88FAFF1F42
:10371000B165000060CBFF1FD8EEFF1FD8E5FF1F8B
:10372000D9040000955F010054E6FF1FF5A30000D7
:10373000BCE7FF1F48EDFF1FF50400007C6C010093
:10374000ACF7FF1FC8EEFF1F08B50A20012105F0E6
:103750009DFB0A20012105F06DFB144B14491A78DA
:1037600022F0020242F005021A70124B1A6842F46B
:1037700080521A60104B1A68104A1A60DA684FF0CB
:103780003842DA601A694FF078421A614FF40072D9
:103790000A600B490220087019680A4919600A4B2F
:1037A0001A600A4B1A600A4B1A6008BD6E000020AE
:1037B00010C004403C80044000C0024001401F8013
:1037C00074000020000C1F8008C004401CB004409E
:1037D00004C0044072B6002380F82B3090F82A20F1
:1037E00052B180F82A3062B6064A138833B1013BE1
:1037F0009BB2138013B1704762B670475E2002F02F
:103800001FBD00BFECFAFF1F2DE9F04F90F82B30E1
:1038100087B08346002B40F0FB8490F82A50002D9F
:1038200000F0F68406F070FA0590002800F0F084AD
:10383000DBF82030DBF81C20D2189D4B1C789D4B08
:10384000C2F30741200494B1014341F0104141F417
:103850003061586B5963D96A01F47041B1F5405F2A
:10386000F9D8934B1878934B010498B924E0924C03
:1038700024682070D86A4FF080500143D86241F428
:103880003061586B5963D96A01F47041B1F5405FFA
:10389000F9D8E6E792B242F0104211435A6B5963ED
:1038A000DA6A02F47042B2F5405FF9D8804B1978B9
:1038B000804B0A0491B91CE07F4800680170D96A06
:1038C00092B24FF08051D9620A43596B5A63DA6A57
:1038D00002F47042B2F5405FF9D8E7E742F00042E7
:1038E000596B5A63DA6A02F47042B2F5405FF9D854
:1038F0000EE0714909680A70D96A4FF08051D962A7
:10390000596B5A63DA6A02F47042B2F5405FF9D833
:103910006849CB6A674A13F0F00FFAD0936BD36A09
:1039200013F0F00FFBD0634B9B6BD16A614B11F02E
:10393000F00FFAD09A6B5E4A11780A0479B142F01E
:103940001042596B5A63DA6A02F47042B2F5405F72
:10395000F9D8574B1978574B0A0481B91FE05649DB
:1039600009680A70DA6A4FF08052DA62596B5A635A
:10397000DA6A02F47042B2F5405FF9D8E9E742F042
:103980001042596B5A63DA6A02F47042B2F5405F32
:10399000F9D8474B1978474B0A0481B91FE04649CB
:1039A00009680A70DA6A4FF08052DA62596B5A631A
:1039B000DA6A02F47042B2F5405FF9D8E9E742F002
:1039C0001042596B5A63DA6A02F47042B2F5405FF2
:1039D000F9D8374B1978374B0A0481B921E03649B9
:1039E00009680A70DA6A4FF08052DA62596B5A63DA
:1039F000DA6A02F47042B2F5405FF9D8E9E742F0C2
:103A00001042596B5A63DA6A02F47042B2F5405FB1
:103A1000F9D8059CBBF82860A31C032D049610D987
:103A200014E2254909680A70DA6A4FF08052DA62B6
:103A3000596B5A63DA6A02F47042B2F5405FF9D802
:103A4000E7E7022D70D0032D00F01B811A49194AB7
:103A50001A4EDFF85CE000204FF080554FF0C05C5C
:103A600088464FF00109D76A17F0F00FFBD0976B2B
:103A7000C7F3072AFFB236F81AA036F8177023F8F2
:103A800010A003EB400A7528AAF8027026DC9EF805
:103A900000704FEA074A9FB14AF01047D2F834A0AD
:103AA0005763D76A07F47047B7F5405FF9D837E036
:103AB0007400002000C0024070000020C8610100B6
:103AC0000F6887F800A0D76AD562576B5563D76A2D
:103AD00007F47047B7F5405FF9D821E077281FDC7D
:103AE0009EF800704FEA074A5FB14AF08057D2F85B
:103AF00034A05763D76A07F47047B7F5405FF9D829
:103B00000EE00F6887F800A0D76AD562576BC2F83D
:103B100034C0D76AFF00FCD5D8F8007087F8009051
:103B2000023080289FD183E2A44AA54FDFF894C2D7
:103B3000DFF894E2002011464FF08055B846D66A6F
:103B400016F0F00FFBD0966B049CC6F30729F6B273
:103B50003CF819A03CF81660A3F802A00FFA8AF905
:103B60000FFA86FA09FA84F4D14464104FEA69091D
:103B70001C80A3F80490DE80D46A14F0F00FFBD010
:103B80008C6B904EC4F30729103336F81990E6B2C7
:103B90008C4C23F8069C34F816600FFA89F4A24482
:103BA00004FA86F464104FEA6A0A23F808AC23F892
:103BB000044C23F8026C6F285DDC9EF800404FEA4D
:103BC00004496CB149F01044D1F834904C63D46A84
:103BD00004F47044B4F5405FF9D867280EDDF8E2CC
:103BE0003C6884F80090CC6ACD624C6B4D63D46A1B
:103BF00004F47044B4F5405FF9D8EEE79EF8004055
:103C00004FEA04495CB149F01044D2F8349054634F
:103C1000D46A04F47044B4F5405FF9D82BE03C68F2
:103C200084F80090D46AD562546B5563D46A04F466
:103C30007044B4F5405FF9D81DE049F08054D2F8E3
:103C400034905463D46A04F47044B4F5405FF9D8F6
:103C500011E03C6884F80090D46AD562546B4FF050
:103C6000C0545463D46AE400FCD5D8F800404FF047
:103C7000010984F800900830802804967FF45FAF33
:103C800086E24E4ADFF838E14FF000082946104638
:103C90004FF08057D56A15F0F00FFBD0956B494E69
:103CA000C5F30724EDB236F814C0049C36F815505D
:103CB000A3F806C00FFA8CF614FB01694FEAA909B4
:103CC00024B2A3F8009004EB06094FEA69091CFB33
:103CD0000144A410A3F802900FFA85F99C801CFB04
:103CE000019C06EB090415FB01664FEAAC0C64105D
:103CF000B610A3F808C05C819E81DD81D46A14F0FF
:103D0000F00FFBD0846B2F4EC4F3072CB8F15F0F7C
:103D100036F81CC0E6B22B4C34F8166069DC2A4C2D
:103D200024784FEA044A74B14AF01044D0F834A021
:103D30004463D46A04F47044B4F5405FF9D8B8F130
:103D40004F0F0FDD4DE2DEF8004084F800A0C46A9A
:103D5000C762446B4763D46A04F47044B4F5405FAF
:103D6000F9D8ECE7184C24784FEA044A5CB14AF0E1
:103D70001044D2F834A05463D46A04F47044B4F507
:103D8000405FF9D835E0DEF8004084F800A0D46A3E
:103D9000D762546B5763D46A04F47044B4F5405F3F
:103DA000F9D826E04AF08054D2F834A05463D46A9B
:103DB00004F47044B4F5405FF9D81AE000C0024042
:103DC00070000020C861010074000020DEF800408F
:103DD00084F800A0D46AD762546B4FF0C054546387
:103DE000D46AE400FCD5934C24684FF0010A84F8AF
:103DF00000A00FFA8CF415FB014A2DB21CFB0155F3
:103E0000AD109D8235B2A3F816C0A1441CFB015C25
:103E1000651916FB01446D10A4104FEAAA0A4FEA77
:103E200069094FEAAC0C08F11008A3F810A0A3F838
:103E30001290A3F818C05D839C83DE832033B8F111
:103E4000800F04967FF426AF2025A7E1822D5FD056
:103E5000832D00F0F580812D40F09C817548764AD5
:103E6000764F00214FF080554FF0C05E84464FF0F2
:103E70000108D66A16F0F00FFBD0966B76BA7A2955
:103E800023F811601DDC3E784FEA06495EB149F027
:103E90001046D2F834905663D66A06F47046B6F5EA
:103EA000405FF9D82EE0066886F80090D66AD562A1
:103EB000566B5563D66A06F47046B6F5405FF9D87E
:103EC00020E07B291ED13E784FEA06495EB149F0D9
:103ED0008056D2F834905663D66A06F47046B6F52A
:103EE000405FF9D80EE0066886F80090D66AD56281
:103EF000566BC2F834E0D66AF600FCD5DCF80060F8
:103F000086F8008001318029B3D14FF4807545E1F6
:103F1000494A484FDFF824E1002011464FF0805510
:103F2000BC46D66A16F0F00FFBD0966B76BAB14657
:103F3000CE6A16F0F00FFBD08E6B76BAB6B2029650
:103F4000DDF80880049EA3F802900FFA89FA0AFAB5
:103F500086F40AFA88FA64104FEA6A0A1C80A3F809
:103F600004A0A3F80680083377285BDC9EF80040A5
:103F70004FEA044A6CB14AF01044D1F834A04C63C3
:103F8000D46A04F47044B4F5405FF9D873280EDDA8
:103F90002FE13C6884F800A0CC6ACD624C6B4D6385
:103FA000D46A04F47044B4F5405FF9D8EEE79EF8A3
:103FB00000404FEA044A5CB14AF01044D2F834A001
:103FC0005463D46A04F47044B4F5405FF9D829E02E
:103FD0003C6884F800A0D46AD562546B5563D46AF7
:103FE00004F47044B4F5405FF9D81BE04AF0805403
:103FF000D2F834A05463D46A04F47044B4F5405F3A
:10400000F9D80FE03C6884F800A0D46AD562546BFC
:104010004FF0C0545463D46AE600FCD5DCF800606D
:10402000012434700430029E802804967FF479AF16
:104030000546B3E07000002000C00240740000207C
:10404000754ADFF8DCE1754F002011464FF08055CE
:10405000D66A16F0F00FFBD0966B96FA96F9CE6AF8
:1040600016F0F00FFBD08E6B76BADDF81080DDF81D
:1040700010C0A3F806900FFA88FA03240FFA89F803
:10408000B6B202961CFB0486B4101C80029E0AEB9A
:10409000080464105C800FFA86F908EB4804A24417
:1040A0004C44A4101C8108EB090409EB4909C144E4
:1040B00064104FEAAA0A4FEAA909A3F804A05C8198
:1040C000A3F80C90DE8110336F285BDC9EF8004073
:1040D0004FEA04486CB148F01044D1F834804C6386
:1040E000D46A04F47044B4F5405FF9D867280EDD53
:1040F00087E03C6884F80080CC6ACD624C6B4D63ED
:10410000D46A04F47044B4F5405FF9D8EEE79EF841
:1041100000404FEA04485CB148F01044D2F83480C3
:104120005463D46A04F47044B4F5405FF9D829E0CC
:104130003C6884F80080D46AD562546B5563D46AB5
:1041400004F47044B4F5405FF9D81BE048F08054A3
:10415000D2F834805463D46A04F47044B4F5405FF8
:10416000F9D80FE03C6884F80080D46AD562546BBB
:104170004FF0C0545463D46AE400FCD5274E36682F
:10418000012434700830029E802804967FF460AFCA
:10419000402503E0059805F0FFFD14E00022584695
:1041A000059905F019FE059805F0F6FDDBF81C00F1
:1041B000DBF82430DDF810802D189D42ABF8288004
:1041C000CBF81C5024D3584607B0BDE8F04FFFF79A
:1041D00001BB9EF800404FEA0449002C7FF42DAD4E
:1041E00037E50F4C24784FEA044A002C7FF4DAAD0F
:1041F000ECE59EF800404FEA044A002C7FF4F6AE4E
:1042000000E79EF800404FEA0448002C9ED1A9E741
:1042100007B0BDE8F08F00BF00C002407000002072
:104220007400002038B504460D46FFF7D3FA5E202F
:1042300001F0ECFF6F4B1A8801321A8072B66E4B98
:1042400018786E4BC5F307420104A0B141F010414C
:1042500041F430610A43596B5A63DA6A02F47042DE
:10426000B2F5405FF9D8644B1878644B2A04010416
:10427000120C98B923E0624800680170D96A4FF0C7
:1042800080510A43D96242F43062596B5A63DA6A48
:1042900002F47042B2F5405FF9D8E4E741F0104112
:1042A0000A43596B5A63DA6A02F47042B2F5405F0E
:1042B000F9D8514B1978514B0A0489B91BE0504881
:1042C00000680170D96A4FF08051D9620A43596B76
:1042D0005A63DA6A02F47042B2F5405FF9D8E8E74F
:1042E00042F00042596B5A63DA6A02F47042B2F546
:1042F000405FF9D80EE0424909680A70D96A4FF068
:104300008051D962596B5A63DA6A02F47042B2F58D
:10431000405FF9D83949CB6A384A13F0F00FFAD028
:10432000936BD36A13F0F00FFBD0344B9B6BD16AC5
:10433000324B11F0F00FFAD09A6B2F4A11780A0421
:1043400079B142F01042596B5A63DA6A02F4704252
:10435000B2F5405FF9D8284B1A78284B110482B97E
:104360001AE0274909680A70DA6A4FF08052DA6267
:10437000596B5A63DA6A02F47042B2F5405FF9D8B9
:10438000E9E741F080515A6B5963DA6A02F47042EE
:10439000B2F5405FF9D810E0194A10680170D96A87
:1043A0004FF08051D962596B4FF0C0515963D96AAF
:1043B000C900FCD5136801221A70002304350F4A86
:1043C0002385E3612562D36A13F0F00F0B4BFAD01B
:1043D0009A6B52BAD96A11F0F00FFBD0074B9B6B66
:1043E00003F47F4142EA0122626284F82A3062B615
:1043F00038BD00BFECFAFF1F7400002000C002406F
:104400007000002072B662B6C269036AD21A72B630
:1044100090F82A3062B6032B0FD004D8012B10D0AD
:10442000022B0CD107E0822B0BD0832B03D0812BE6
:1044300005D1064B06E0064B04E0064B02E00023E4
:1044400000E0054BA3FB022318467047907BCD0587
:1044500040EE351780DC6B2E20F79A0B426A72B65D
:1044600090F82A3062B6032B0FD004D8012B10D05D
:10447000022B0CD107E0822B0BD0832B03D0812B96
:1044800005D1064B06E0064B04E0064B02E0002394
:1044900000E0054BA3FB022318467047907BCD0537
:1044A00040EE351780DC6B2E20F79A0B002070470A
:1044B0000020704708B50368C9B21B68984708BD5B
:1044C000242938B508BFC2800C460E480A2115467B
:1044D00001F026FE210A0B48FFF7ECFF21460948B0
:1044E000FFF7E8FF290A0748FFF7E4FF29460548D8
:1044F000FFF7E0FF034801F016FED0F1010038BFDE
:10450000002038BD44FBFF1F38B501250446057166
:10451000334801F0F7FC052004F0E6FD3021204689
:1045200044F26002FFF7CCFF26216C222046FFF701
:10453000C7FF282120464FF4F972FFF7C1FF2C2155
:10454000204640F62272FFF7BBFF3C21204644F292
:104550004642FFF7B5FF2421204640F23712FFF70D
:10456000AFFF3021204644F2FF02FFF7A9FF0221EE
:1045700073222046FFF7A4FF4FF4C87004F0B4FD87
:104580002E21204641F61D52FFF79AFF04210A46CC
:104590002046FFF795FF062120464FF49872FFF75B
:1045A0008FFF0A2120461022FFF78AFF0E212046A6
:1045B0000022FFF785FF1021204643F63C42FFF71B
:1045C0007FFF2221204647F67F72FFF779FF2046C2
:1045D00024213622FFF774FF2572284638BD00BF1C
:1045E00044FBFF1F10B5044659B920215522FFF79F
:1045F00067FFE8B1E28842F004022046242192B22B
:1046000012E0012914D12A2140F27312FFF758FF5A
:1046100070B1204620218822FFF752FF40B1E28886
:10462000204622F004022421BDE81040FFF748BFD5
:10463000002010BD38B5044669B90123222147F690
:104640007F720371FFF73CFFE28842F010022046C0
:10465000242192B212E00379802994BFC1F1800530
:1046600000253BB1C2880023037122F010022421EF
:10467000FFF726FF2046222145EA0522BDE8384003
:10468000FFF71EBFFFFFFFFF10B5044608460C49A9
:1046900009F03EFB08F0A8FE07A3D3E9002308F0C9
:1046A00045FD09F0B7F901462046BDE81040FFF787
:1046B000C1BF00BFAFF30080560E2DB29DEFDF3FAC
:1046C00000000143AFF300802DE9F74F00210446BD
:1046D00005F0A4FB0546002800F09C80237F03B969
:1046E0004EE000F58171831C01914FF480304FF64C
:1046F000FF764FF0040E88E0E78B002F50D1227F29
:10470000022A11D1A28DE2831AB1032222772062FC
:1047100016E0E78D226BE783A2F58032FF0084F874
:104720001CE092FBF7F239E0032A0BD1226BE78DF4
:1047300084F81CE0A2F58032E78392FBF7F7FF10C4
:10474000676262E0042A06D1226BE68305212177A5
:104750002262676224E0052A01D1E68320E0062A6E
:1047600013D12777019A1F605F609F60DF6010336D
:104770009342F7D320462946002205F02DFB284618
:1047800003B0BDE8F04F05F007BB012A08D1628DE8
:104790000221E28390FBF2F22177D210626234E0D0
:1047A000276A626AD3F80090D3F80480D3F80CC06B
:1047B000D71937FB09FBBF1837FB19FACBEA0A4AAE
:1047C000BF1837FB08FBBF1837FB18F9CBEA0949BC
:1047D0009968BF1837FB01FBBF1837FB11F8CBEA0C
:1047E0000848BF1837FB0CFBBA18226232FB1CF2D8
:1047F000CBEA0242DA60E28BC3F800A0013AC3F8C8
:104800000490C3F808801033E283019A9342FFF4C6
:1048100073AFAFE703B0BDE8F08F72B6028D00232F
:104820000362C28312B10122027708E002230377F8
:10483000438D4FF48032C38392FBF3F3DB1043626A
:1048400062B6704772B60623026B0377838E0262EC
:10485000C3835242DB0092FBF3F3436262B67047BC
:104860002DE9F0410021064605F0D8FA0121044661
:10487000304605F0C6FA054614B9002834D02FE0BA
:1048800020466DB3A31C04F5817CAA1C1CE052F8E1
:1048900008EC52F8040C1F68596817FB3EF828F31F
:1048A000CF3817FB0EF727F3CF37C7EA084711FBBE
:1048B00030FE2EF3CF3E11FB00F121F3CF31C1EAE0
:1048C0000E411F605960083308326345DFD330461C
:1048D0002146002205F080FA204605F05DFA2846C0
:1048E000BDE8F04105F058BABDE8F0812DE9F74F79
:1048F0009346C669D0F824A0856AC46A026B019306
:104900000023CF5E3F0356FB12FC04EB8C0C5AFBDA
:1049100012F47D19CCEB65054FEA8408C8EB050855
:1049200056FB18F502EB850556FB15F40CEB8404D9
:104930005AFB15F93A1B4FEA8909C9EB020956FBE4
:1049400019F205EB8202A4442CF34F3C551925F3D0
:104950004F35C84428F34F382BF803C0DDF804C0A6
:104960002CF803500C9D25F803800233B3F5807FAB
:104970003D46C6D18762C4620263BDE8FE8FFFFF79
:104980002DE9F04F046A476A85B01E468369039299
:104990008B460294C16A846A026B01930023039DD3
:1049A00035F903C0029D05FB0CFC2CF0784808F19A
:1049B00000684FEAC80858FB18F82B4D58FB15F84B
:1049C0004FEAC808013D4FEAEC6C4544CCF1060CB7
:1049D00045FA0CFC019D55FB1CF8244D3BF903C026
:1049E000A845B8BF45462D024FEA0C3C55FB12F8CE
:1049F00001EB880857FB12F16444C8EB64044FEAEA
:104A00008109C9EB040955FB19F402EB840455FB39
:104A100014F108EB810157FB14FAC1EB0C024FEAC9
:104A20008A0ACAEB020A55FB1AF204EB8202884496
:104A300028F34F38141924F34F34D14429F34F3954
:104A40000E9D26F80380EC520F9C24F8039002334D
:104A5000B3F5807F6446A2D1C0F828C0C16202636A
:104A600005B0BDE8F08F00BFABAAAA2AE71052003C
:104A70002DE9F7430021054605F0C3F9012107465A
:104A8000284605F0BEF9044617B9002856D050E074
:104A900005F03AF9064608B9384613E005F034F94E
:104AA000814620B9384605F077F930460AE005F02E
:104AB0002BF9804660B9384605F06EF9304605F0AE
:104AC0006BF9484605F068F9002C37D0204630E0F5
:104AD000B91C06F1020E09F102035CB10093831CBC
:104AE00001932846A21C7346FFF74AFF204605F0B3
:104AF00053F905E0821C009228467246FFF7F6FE45
:104B0000384605F049F931460022284605F064F997
:104B1000304605F041F949460122284605F05CF986
:104B2000484605F039F928464146022205F054F975
:104B3000404603B0BDE8F04305F02EB903B0BDE830
:104B4000F083FFFF2DE9F041DFF860C0154E164FEE
:104B5000002A0CBF4FF064524FF06052002434F82A
:104B6000078056F814509CFBF8F8414504D303F035
:104B70000801C9B221B905E002342E2CEFD1F6E7C5
:104B800042F0806203F00403DBB23BB125F47043D2
:104B900005F4704542F0007243EA15152A4302609D
:104BA000BDE8F081F0690100C0690100006CDC0221
:104BB00010B50446FFF7C6FF204610BD064B4FF068
:104BC00000421A60054A10601A68002AFCDA044B99
:104BD0001868C0B2704700BF2CC0024034C0024009
:104BE00038C0024010B50021062004F023F905204A
:104BF000FFF7E4FF0020FFF7E1FF01210446062054
:104C000004F018F9204610BD164B13B500240A20F5
:104C100001211C7004F00EF90A20012104F036F97C
:104C20000620012104F006F90121062004F02EF9E6
:104C30000D4B1A7842F005021A7001F09BFA012020
:104C400001F01CFB204601F02DFB08490122234600
:104C500001A8FFF7ADFF019801F00CFCFFF7C2FFC0
:104C60001CBD00BFA8FAFF1F6E00002000127A00D2
:104C700010B5054B1A781C462AB1FFF7B3FF10F0A8
:104C80000100FAD1207010BDA8FAFF1F38B5054603
:104C9000FFF7EEFF0620002104F0CCF89F20FFF77D
:104CA0008DFF00240020FFF789FF28550134142CC4
:104CB000F8D106200121BDE8384004F0BBB8FFFF61
:104CC00010B50446FFF7D4FF0021062004F0B2F827
:104CD0000620FFF773FF0620012104F0ABF8002146
:104CE000062004F0A7F8C720FFF768FF062001217F
:104CF00004F0A0F8044B01221A701CB1BDE810406A
:104D0000FFF7B6BF10BD00BFA8FAFF1F38B50C46AD
:104D10000546FFF7ADFF0021062004F08BF80620C2
:104D2000FFF74CFF0620012104F084F80021062043
:104D300004F080F824020220FFF740FFC4F307408C
:104D4000FFF73CFFC4F30720FFF738FF0020FFF711
:104D500035FF0024285D0134FFF730FFB4F5807F74
:104D6000F8D10620012104F065F8024B01221A70E7
:104D700038BD00BFA8FAFF1F70B516460C460546A1
:104D8000FFF776FF0021062004F054F824020320E8
:104D9000FFF714FFC4F30740FFF710FFC4F3072029
:104DA000FFF70CFF0020FFF709FF3602002404E0A4
:104DB0000020FFF703FF28550134B442F8DB06203A
:104DC0000121BDE8704004F035B810B5044605F087
:104DD00005F9204610BDFFFF02480349034A09F0C8
:104DE00067BE00BFACFAFF1FCB4D000060CBFF1FBA
:104DF00002480349034A09F05BBE00BFB4FAFF1F33
:104E0000CB4D000060CBFF1F10B500F5807203682A
:104E100031FB03F431FB13F304F30F0403F30F032B
:104E2000C4EA034340F8043B9042F0D110BD002394
:104E3000B2F5803F70B510D1C258CC5892FA14F236
:104E4000C250CD18C2186D68546894FA15F408332E
:104E5000B3F5807F5460EFD170BDCC5832FB04F6BF
:104E600032FB14F406F30F0604F30F04C6EA0444FD
:104E7000C55894FA15F5C5500433B3F5807FECD1CD
:104E800070BD2DE9F0410025064607462C46304608
:104E900029465CB904F0C2FF0446A0B1B969B1F576
:104EA000803F10D00230FFF7AFFF0CE004F0A9FF05
:104EB000804640B1A01C08F10201BA69FFF7B7FFB4
:104EC000404604F069FF01350437102DDFD14CB1A5
:104ED00030462146002204F07FFF2046BDE8F04125
:104EE00004F05ABFBDE8F0812DE9F04100250646E7
:104EF00007462C46304629465CB904F08FFF04462D
:104F0000A0B1B969B1F5803F10D00230FFF77CFF46
:104F10000CE004F076FF804640B1A01C08F10201CD
:104F2000BA69FFF784FF404604F036FF01350437C5
:104F3000042DDFD14CB130462146002204F04CFF55
:104F40002046BDE8F04104F027BFBDE8F081FFFF37
:104F500002480349034A09F0ABBD00BFBCFAFF1F7A
:104F6000CB4D000060CBFF1F70B50021064604F05A
:104F700048FF0346A8B172B6194C206818B92360DF
:104F8000184B188003E018490D6815B90B6062B61C
:104F900007E00B60134B25600021198062B604F016
:104FA000FBFE3046012104F02CFF0346B8B172B677
:104FB0000E49086818B90B600D4B188003E00D4AC4
:104FC000146814B9136062B670BD1360084B0C60AE
:104FD00000221A8062B6BDE8704004F0DDBE70BDEC
:104FE000D4FAFF1FDAFAFF1FE0FAFF1FCCFAFF1F07
:104FF000D0FAFF1FDCFAFF1F70B52D4B2D4D1A683C
:10500000197912682C4BAA42197007D22B4B1B78C6
:1050100033B12B4B4FF080421A6001E0294C02E083
:105020002C4605F58075284B1868C8B1274B1A889F
:1050300000EB420333F8021F24F8041BAC42F9D3FF
:1050400040327F2A214B01D81A800DE000261E80B5
:1050500004F0A2FE1E4B1C491A681E600A6003E0A1
:1050600024F8040BAC42FBD31A4B1868FE3CC8B1C1
:10507000194B1A8800EB420333F8021F24F8041B73
:10508000AC42F9D340327F2A134B01D81A8070BD4D
:1050900000241C8004F080FE104B0E491A681C602E
:1050A0000A6070BD24F8040BAC42FBD370BD00BF96
:1050B000C4FAFF1F80C3FF1F1F800040D8FAFF1FE4
:1050C00008E200E080C2FF1FD4FAFF1FDAFAFF1FD8
:1050D000E0FAFF1FCCFAFF1FD0FAFF1FDCFAFF1F18
:1050E000224B1A6842F4004230B51A60204A116817
:1050F00041F0020111601A6842F002021A601D4B71
:105100001B68002B31DB1C4B1B68002B2DDB1B4B62
:105110001B4D4FF086421A60002441F210025A6083
:1051200043F8A04C174AA03B012043F85C0C43F81D
:10513000582C154A4FF4803143F8541C43F8502C36
:10514000124B2B60C5F8CC40114C20601148124C1A
:105150000460416011490A60114A1360114A4FF41A
:10516000C0631360CC355360136130BD3C80044094
:105170004080044000F0024080F0024000F1024014
:1051800014F00240030000071B0F0100000F0F0F77
:1051900084F0024088F002400300004790F0024093
:1051A00094F0024008B0044070B52F4D012128460C
:1051B00004F0BCFE2D4B00241C602D4B1C60FFF73F
:1051C0008FFF2C4B4FF4C0621A602B681A682A4A72
:1051D0005C711A6002221A711A726FF001025A731E
:1051E0004FF0FF329A73DA731A69244A5C721A61BB
:1051F0004FF48071DA8AD982D88BD983998B9C72CB
:105200000126062199839E71DE71DC721C731C7568
:105210005C751C765C769C76DC762B7903F180439A
:1052200003F504338F221C701A7004F02FFE144B08
:10523000144A18702B7914481370144A116841F0FD
:1052400012413143116003F11001114A42F821006B
:105250005A11920002F1604202F5614203F01F030D
:1052600006FA03F6166070BDC4FAFF1FD4FAFF1FDA
:10527000CCFAFF1F04B0044080C2FF1F20F00240A0
:10528000D8FAFF1F1B800040F94F000000F00240D9
:1052900000C6FF1F02480349034A09F009BC00BFCA
:1052A000C4FAFF1FCB4D000060CBFF1F024803492B
:1052B000034A09F0FDBB00BFE4FAFF1FCB4D00001D
:1052C00060CBFF1F2DE9F84F90F826300546002BE4
:1052D00000F0628104F018FD0746002800F05C81B0
:1052E00095F82660AA69AC8C831C032E00F096808A
:1052F00005D8012E0CD0022E40F02F8138E0822EEE
:105300006FD0832E00F0F980812E40F0268122E0BC
:10531000A248944600215CF8046B5FFA86FEC6F34F
:10532000072830F81EE030F8188023F801E003EB7E
:10533000010E0831AEF80280C6F30748360E30F889
:10534000188030F81660AEF80480B1F5807FAEF8B2
:105350000660E0D109E10026915998199953043665
:10536000090CB6F5807F4180F6D102F58072FDE030
:105370008A4902F14008264652F8040BC4B21033A1
:1053800031F81490C0F3072423F80E9C31F814C0B0
:10539000C0F30744000E31F814E031F8104023F850
:1053A0000ACC0FFA89F000FA86F6761023F8106C12
:1053B0000FFA8CF68019401023F80C0C0FFA8EF0BF
:1053C000361800FA84F07610401023F8086C23F8A1
:1053D00006EC23F8040C23F8024C42452646CBD1B8
:1053E0001AE0944600215CF8046B0FFA86FE0EFA70
:1053F00084F4300C64105C520EFA80FE5C180831A4
:105400004FEA6E0EB1F5807F6680A4F804E0E0807C
:1054100084B2E8D1803204464023A8E0DFF87C81E2
:1054200002F12009A64652F8041BC8B2203338F80E
:1054300010A0C1F3072023F81AAC38F810C0C1F34C
:105440000740090E38F8100038F8114023F812CC44
:105450000FFA8AF11EFB061B4FEAAB0B0FFA8EFE0A
:1054600023F820BC0EEB010B1AFB06EE4FEAAE0E42
:1054700023F81CEC0FFA8CFE1AFB06EA4FEAAA0A84
:1054800023F818AC01EB0E0A1CFB0611891023F857
:10549000141C01B21CFB061C4FEAAC0C23F810CC08
:1054A0000EEB010C10FB06EE4FEAAE0E23F80CECEF
:1054B0000FFA84FE23F80A0C10FB06E08E4414FB5E
:1054C000061180104FEA6E0E89104FEA6B0B4FEAFF
:1054D0006A0A4FEA6C0C23F806EC23F81EBC23F88A
:1054E00016AC23F80ECC23F8080C23F8041C23F880
:1054F000024C4A45A64696D12DE002F140082146CD
:105500004FF0030952F8040B06B20FFA81FC11FBAD
:105510000961891019800CEB0601040C49105980AF
:1055200006EB460E21B2D880F44470188E4401EB8D
:10553000410176184010B6104FEAAC0C4FEAAE0E9F
:10554000A3F804C0A3F808E058819E81DC811033E1
:1055500042452146D6D1202309E0384604F01CFC00
:10556000002385F82630BDE8F88F80328023AA61B9
:105570002A6AAC849A4202D9D31A2B6202E0002331
:1055800085F8263028463946002204F025FC3846A6
:10559000BDE8F84F04F000BCBDE8F88FC861010019
:1055A000002380F82630838451F8043B23F07F42A7
:1055B0001B0E8161C161026280F826307047FFFFD7
:1055C0002DE9F84FC46A0546002C00F0678204F00C
:1055D0009BFB8046002800F06182861C00F5817AE2
:1055E000E969D5F820E0686AAF69EA4AEA4B95F8BC
:1055F00028C0DFF8A8B31BF80C900CF1010C85F85B
:1056000028C04FEAE77C01EA090B2EEA090E0CEAF2
:1056100009094BEA0E0E89EA0101CEEB0109484463
:10562000DFF87C930CEA090989EA470707F03F0C89
:1056300052F82C90C7F3851C814453F82CC0E144E8
:1056400034FB09F94FEAE77C01F4006B2EF4006E9D
:105650004BEA0E0E0CF4006B8BEA0101CEEB010B52
:105660005844DFF83CB30CEA0B0B8BEA470707F012
:105670003F0C52F82CB0C7F3851C834453F82CC060
:10568000DC4434FB0CFCC9EA0C494FEAE77CC6F861
:1056900000902EF4806E01F4806949EA0E0E0CF43D
:1056A000806989EA0101CEEB01094844DFF8F092F4
:1056B0000CEA090989EA470707F03F0C52F82C90D9
:1056C000C7F3851C814453F82CC0E14434FB09F92D
:1056D0004FEAE77C01F4006B2EF4006E4BEA0E0EED
:1056E0000CF4006B8BEA0101CEEB010B5844DFF8A0
:1056F000B0B20CEA0B0B8BEA470707F03F0C52F8ED
:105700002CB0C7F3851C834453F82CC0DC4434FB15
:105710000CFCC9EA0C494FEAE77CC6F804902EF469
:10572000007E01F4007949EA0E0E0CF4007989EA52
:105730000101CEEB01094844DFF864920CEA090943
:1057400089EA470707F03F0C52F82C90C7F3851CF5
:10575000814453F82CC0E14434FB09F94FEAE77C5B
:1057600001F4006B2EF4006E4BEA0E0E0CF4006B8D
:105770008BEA0101CEEB010B5844DFF824B20CEAAE
:105780000B0B8BEA470707F03F0C52F82CB0C7F31E
:10579000851C834453F82CC0DC4434FB0CFCC9EA60
:1057A0000C494FEAE77CC6F808902EF4806E01F4AD
:1057B000806949EA0E0E0CF4806989EA0101CEEB9A
:1057C00001094844DFF8D8910CEA090989EA47073A
:1057D00007F03F0C52F82C90C7F3851C814453F816
:1057E0002CC0E14434FB09F94FEAE77C01F4006B7B
:1057F0002EF4006E4BEA0E0E0CF4006B8BEA0101E6
:10580000CEEB010B5844DFF898B10CEA0B0B8BEA96
:10581000470707F03F0C52F82CB0C7F3851C8344B0
:1058200053F82CC0DC4434FB0CFCC9EA0C494FEAA9
:10583000E77CC6F80C902EF4807E01F4807949EA6A
:105840000E0E0CF4807989EA0101CEEB010948447F
:10585000DFF84C910CEA090989EA470707F03F0C89
:1058600052F82C90C7F3851C814453F82CC0E144B6
:1058700034FB09F94FEAE77C01F4006B2EF4006E6B
:105880004BEA0E0E0CF4006B8BEA0101CEEB010B20
:105890005844DFF80CB10CEA0B0B8BEA470707F012
:1058A0003F0C52F82CB0C7F3851C834453F82CC02E
:1058B000DC4434FB0CFCC9EA0C494FEAE77CC6F82F
:1058C00010902EF4806E01F4806949EA0E0E0CF4FB
:1058D000806989EA0101CEEB01094844DFF8C090F4
:1058E0000CEA090989EA470707F03F0C52F82C90A7
:1058F000C7F3851C814453F82CC0E14434FB09F9FB
:105900004FEAE77C01F4006B2EF4006E4BEA0E0EBA
:105910000CF4006B8BEA0101CEEB010B5844DFF86D
:1059200080B00CEA0B0B8BEA470707F03F0C52F8EC
:105930002CB0C7F3851C834453F82CC0DC4434FBE3
:105940000CFCC9EA0C494FEAE77CC6F814902EF427
:10595000007E01F4007949EA0E0E0CF4007989EA20
:105960000101CEEB01094844DFF834900CEA090943
:1059700089EA470707F03F0C52F82C90C7F3851CC3
:10598000814453F82CC0E14434FB09F94FEAE77C29
:1059900008E000BF706701007068010070660100D8
:1059A0000100004601F4006B2EF4006E4BEA0E0E6F
:1059B0000CF4006B8BEA0101CEEB010B5844DFF8CD
:1059C000E0B00CEA0B0B8BEA470707F03F0C52F8EC
:1059D0002CB0C7F3851C834453F82CC0DC4434FB43
:1059E0000CFCC9EA0C49C6F818904FEAE77C01F4B0
:1059F00080692EF4806E49EA0E0E0CF4806989EA03
:105A00000101CEEB01094844DFF894900CEA090942
:105A100089EA470707F03F0C52F82C90C7F3851C22
:105A2000814453F82CC0E14434FB09F94FEAE77C88
:105A300001F4006B2EF4006E4BEA0E0E0CF4006BBA
:105A40008BEA0101CEEB010B5844DFF854B00CEAAD
:105A50000B0B8BEA470707F03F0C52F82CB0C7F34B
:105A6000851C834453F82CC0DC4434FB0CFCC9EA8D
:105A70000C49C6F81C9020365645FFF4B8ADE961D4
:105A80006862C5F820E02846AF614146002204F074
:105A9000A3F94046BDE8F84F04F07EB9BDE8F88FA1
:105AA000010000462DE9F843036A0446002B34D078
:105AB00004F02AF9054600282FD0A169E069D4F83E
:105AC00020C0194F0A4600234FEA126EC2F30F2678
:105AD00037F91E900EF1010EC6F57F4837F91EE02A
